{
  "contractName": "Election",
  "abi": [
    {
      "constant": true,
      "inputs": [],
      "name": "candidatesCount",
      "outputs": [
        {
          "name": "",
          "type": "uint256"
        }
      ],
      "payable": false,
      "stateMutability": "view",
      "type": "function"
    },
    {
      "constant": true,
      "inputs": [
        {
          "name": "",
          "type": "uint256"
        }
      ],
      "name": "candidates",
      "outputs": [
        {
          "name": "id",
          "type": "uint256"
        },
        {
          "name": "name",
          "type": "string"
        },
        {
          "name": "voteCount",
          "type": "uint256"
        }
      ],
      "payable": false,
      "stateMutability": "view",
      "type": "function"
    },
    {
      "constant": true,
      "inputs": [],
      "name": "owner",
      "outputs": [
        {
          "name": "",
          "type": "address"
        }
      ],
      "payable": false,
      "stateMutability": "view",
      "type": "function"
    },
    {
      "inputs": [],
      "payable": false,
      "stateMutability": "nonpayable",
      "type": "constructor"
    },
    {
      "constant": false,
      "inputs": [
        {
          "name": "_name",
          "type": "string"
        }
      ],
      "name": "addCandidate",
      "outputs": [],
      "payable": false,
      "stateMutability": "nonpayable",
      "type": "function"
    },
    {
      "constant": false,
      "inputs": [
        {
          "name": "voter",
          "type": "address"
        }
      ],
      "name": "addVoters",
      "outputs": [],
      "payable": false,
      "stateMutability": "nonpayable",
      "type": "function"
    },
    {
      "constant": false,
      "inputs": [
        {
          "name": "_candidateId",
          "type": "uint256"
        }
      ],
      "name": "vote",
      "outputs": [],
      "payable": false,
      "stateMutability": "nonpayable",
      "type": "function"
    }
  ],
  "bytecode": "0x608060405234801561001057600080fd5b50336000806101000a81548173ffffffffffffffffffffffffffffffffffffffff021916908373ffffffffffffffffffffffffffffffffffffffff160217905550610809806100606000396000f3fe608060405234801561001057600080fd5b506004361061007f576000357c0100000000000000000000000000000000000000000000000000000000900480630121b93f146100845780632d35a8a2146100b25780633477ee2e146100d0578063462e91ec146101855780634c105d1b146102405780638da5cb5b14610284575b600080fd5b6100b06004803603602081101561009a57600080fd5b81019080803590602001909291905050506102ce565b005b6100ba61046f565b6040518082815260200191505060405180910390f35b6100fc600480360360208110156100e657600080fd5b8101908080359060200190929190505050610475565b6040518084815260200180602001838152602001828103825284818151815260200191508051906020019080838360005b8381101561014857808201518184015260208101905061012d565b50505050905090810190601f1680156101755780820380516001836020036101000a031916815260200191505b5094505050505060405180910390f35b61023e6004803603602081101561019b57600080fd5b81019080803590602001906401000000008111156101b857600080fd5b8201836020820111156101ca57600080fd5b803590602001918460018302840111640100000000831117156101ec57600080fd5b91908080601f016020809104026020016040519081016040528093929190818152602001838380828437600081840152601f19601f820116905080830192505050505050509192919290505050610537565b005b6102826004803603602081101561025657600080fd5b81019080803573ffffffffffffffffffffffffffffffffffffffff16906020019092919050505061060f565b005b61028c610713565b604051808273ffffffffffffffffffffffffffffffffffffffff1673ffffffffffffffffffffffffffffffffffffffff16815260200191505060405180910390f35b3373ffffffffffffffffffffffffffffffffffffffff166000809054906101000a900473ffffffffffffffffffffffffffffffffffffffff1673ffffffffffffffffffffffffffffffffffffffff161415151561032a57600080fd5b6000600360003373ffffffffffffffffffffffffffffffffffffffff1673ffffffffffffffffffffffffffffffffffffffff1681526020019081526020016000205411151561037857600080fd5b600260003373ffffffffffffffffffffffffffffffffffffffff1673ffffffffffffffffffffffffffffffffffffffff16815260200190815260200160002060009054906101000a900460ff161515156103d157600080fd5b6000811180156103e357506004548111155b15156103ee57600080fd5b6001600260003373ffffffffffffffffffffffffffffffffffffffff1673ffffffffffffffffffffffffffffffffffffffff16815260200190815260200160002060006101000a81548160ff021916908315150217905550600160008281526020019081526020016000206002016000815480929190600101919050555050565b60045481565b6001602052806000526040600020600091509050806000015490806001018054600181600116156101000203166002900480601f0160208091040260200160405190810160405280929190818152602001828054600181600116156101000203166002900480156105275780601f106104fc57610100808354040283529160200191610527565b820191906000526020600020905b81548152906001019060200180831161050a57829003601f168201915b5050505050908060020154905083565b6000809054906101000a900473ffffffffffffffffffffffffffffffffffffffff1673ffffffffffffffffffffffffffffffffffffffff163373ffffffffffffffffffffffffffffffffffffffff1614151561059257600080fd5b600460008154809291906001019190505550606060405190810160405280600454815260200182815260200160008152506001600060045481526020019081526020016000206000820151816000015560208201518160010190805190602001906105fe929190610738565b506040820151816002015590505050565b6000809054906101000a900473ffffffffffffffffffffffffffffffffffffffff1673ffffffffffffffffffffffffffffffffffffffff163373ffffffffffffffffffffffffffffffffffffffff1614151561066a57600080fd5b6000600360008373ffffffffffffffffffffffffffffffffffffffff1673ffffffffffffffffffffffffffffffffffffffff168152602001908152602001600020541415156106b857600080fd5b600560008154809291906001019190505550600554600360008373ffffffffffffffffffffffffffffffffffffffff1673ffffffffffffffffffffffffffffffffffffffff1681526020019081526020016000208190555050565b6000809054906101000a900473ffffffffffffffffffffffffffffffffffffffff1681565b828054600181600116156101000203166002900490600052602060002090601f016020900481019282601f1061077957805160ff19168380011785556107a7565b828001600101855582156107a7579182015b828111156107a657825182559160200191906001019061078b565b5b5090506107b491906107b8565b5090565b6107da91905b808211156107d65760008160009055506001016107be565b5090565b9056fea165627a7a7230582086a599661aac32d9671727657721c9c75abe1e55f88cbca3c9bd217e35dd09e50029",
  "source": "pragma solidity ^0.5.0;\ncontract Election{\n   address public owner;\n   struct Candidate{\n      uint id;\n      string name;\n      uint voteCount;\n   }\n   mapping(uint=>Candidate) public candidates;\n   mapping(address=>bool) private hasVoted;\n   mapping(address=>uint) private voterList;\n   uint public candidatesCount;\n   uint private votersCount;\n   constructor() public{\n      owner=msg.sender;\n   }\n   modifier onlyOwner(){\n      require(msg.sender==owner);\n      _;\n   }\n   function addCandidate(string memory _name) public onlyOwner{\n      candidatesCount++;\n      candidates[candidatesCount]=Candidate(candidatesCount,_name,0);\n   }\n   function addVoters(address voter) public onlyOwner{\n      require(voterList[voter]==0);\n      votersCount++;\n      voterList[voter]=votersCount;\n   }\n   function vote(uint _candidateId) public{\n      require(owner!=msg.sender);\n      require(voterList[msg.sender]>0);\n      require(!hasVoted[msg.sender]);\n      require(_candidateId>0 && _candidateId<=candidatesCount);\n      hasVoted[msg.sender]=true;\n      candidates[_candidateId].voteCount++;\n   }\n}\n  ",
  "sourcePath": "/home/ec2-user/environment/election/contracts/Election.sol",
  "compiler": {
    "name": "solc",
    "version": "0.5.3+commit.10d17f24.Emscripten.clang"
  },
  "schemaVersion": "3.1.0",
  "updatedAt": "2020-04-23T17:32:22.802Z",
  "networkType": "ethereum",
  "devdoc": {
    "methods": {}
  },
  "userdoc": {
    "methods": {}
  }
}